{
  "contractName": "Kooopa",
  "abi": [
    {
      "anonymous": false,
      "inputs": [
        {
          "indexed": false,
          "internalType": "address",
          "name": "previousAdmin",
          "type": "address"
        },
        {
          "indexed": false,
          "internalType": "address",
          "name": "newAdmin",
          "type": "address"
        }
      ],
      "name": "AdminChanged",
      "type": "event"
    },
    {
      "anonymous": false,
      "inputs": [
        {
          "indexed": true,
          "internalType": "address",
          "name": "owner",
          "type": "address"
        },
        {
          "indexed": true,
          "internalType": "address",
          "name": "spender",
          "type": "address"
        },
        {
          "indexed": false,
          "internalType": "uint256",
          "name": "value",
          "type": "uint256"
        }
      ],
      "name": "Approval",
      "type": "event"
    },
    {
      "anonymous": false,
      "inputs": [
        {
          "indexed": true,
          "internalType": "address",
          "name": "beacon",
          "type": "address"
        }
      ],
      "name": "BeaconUpgraded",
      "type": "event"
    },
    {
      "anonymous": false,
      "inputs": [
        {
          "indexed": true,
          "internalType": "address",
          "name": "delegator",
          "type": "address"
        },
        {
          "indexed": true,
          "internalType": "address",
          "name": "fromDelegate",
          "type": "address"
        },
        {
          "indexed": true,
          "internalType": "address",
          "name": "toDelegate",
          "type": "address"
        }
      ],
      "name": "DelegateChanged",
      "type": "event"
    },
    {
      "anonymous": false,
      "inputs": [
        {
          "indexed": true,
          "internalType": "address",
          "name": "delegate",
          "type": "address"
        },
        {
          "indexed": false,
          "internalType": "uint256",
          "name": "previousBalance",
          "type": "uint256"
        },
        {
          "indexed": false,
          "internalType": "uint256",
          "name": "newBalance",
          "type": "uint256"
        }
      ],
      "name": "DelegateVotesChanged",
      "type": "event"
    },
    {
      "anonymous": false,
      "inputs": [
        {
          "indexed": true,
          "internalType": "address",
          "name": "previousOwner",
          "type": "address"
        },
        {
          "indexed": true,
          "internalType": "address",
          "name": "newOwner",
          "type": "address"
        }
      ],
      "name": "OwnershipTransferred",
      "type": "event"
    },
    {
      "anonymous": false,
      "inputs": [
        {
          "indexed": false,
          "internalType": "address",
          "name": "account",
          "type": "address"
        }
      ],
      "name": "Paused",
      "type": "event"
    },
    {
      "anonymous": false,
      "inputs": [
        {
          "indexed": false,
          "internalType": "uint256",
          "name": "id",
          "type": "uint256"
        }
      ],
      "name": "Snapshot",
      "type": "event"
    },
    {
      "anonymous": false,
      "inputs": [
        {
          "indexed": true,
          "internalType": "address",
          "name": "from",
          "type": "address"
        },
        {
          "indexed": true,
          "internalType": "address",
          "name": "to",
          "type": "address"
        },
        {
          "indexed": false,
          "internalType": "uint256",
          "name": "value",
          "type": "uint256"
        }
      ],
      "name": "Transfer",
      "type": "event"
    },
    {
      "anonymous": false,
      "inputs": [
        {
          "indexed": false,
          "internalType": "address",
          "name": "account",
          "type": "address"
        }
      ],
      "name": "Unpaused",
      "type": "event"
    },
    {
      "anonymous": false,
      "inputs": [
        {
          "indexed": true,
          "internalType": "address",
          "name": "implementation",
          "type": "address"
        }
      ],
      "name": "Upgraded",
      "type": "event"
    },
    {
      "inputs": [],
      "name": "DOMAIN_SEPARATOR",
      "outputs": [
        {
          "internalType": "bytes32",
          "name": "",
          "type": "bytes32"
        }
      ],
      "stateMutability": "view",
      "type": "function"
    },
    {
      "inputs": [],
      "name": "_check",
      "outputs": [
        {
          "internalType": "uint256",
          "name": "",
          "type": "uint256"
        }
      ],
      "stateMutability": "view",
      "type": "function"
    },
    {
      "inputs": [
        {
          "internalType": "address",
          "name": "owner",
          "type": "address"
        },
        {
          "internalType": "address",
          "name": "spender",
          "type": "address"
        }
      ],
      "name": "allowance",
      "outputs": [
        {
          "internalType": "uint256",
          "name": "",
          "type": "uint256"
        }
      ],
      "stateMutability": "view",
      "type": "function"
    },
    {
      "inputs": [
        {
          "internalType": "address",
          "name": "spender",
          "type": "address"
        },
        {
          "internalType": "uint256",
          "name": "amount",
          "type": "uint256"
        }
      ],
      "name": "approve",
      "outputs": [
        {
          "internalType": "bool",
          "name": "",
          "type": "bool"
        }
      ],
      "stateMutability": "nonpayable",
      "type": "function"
    },
    {
      "inputs": [
        {
          "internalType": "address",
          "name": "account",
          "type": "address"
        }
      ],
      "name": "balanceOf",
      "outputs": [
        {
          "internalType": "uint256",
          "name": "",
          "type": "uint256"
        }
      ],
      "stateMutability": "view",
      "type": "function"
    },
    {
      "inputs": [
        {
          "internalType": "address",
          "name": "account",
          "type": "address"
        },
        {
          "internalType": "uint256",
          "name": "snapshotId",
          "type": "uint256"
        }
      ],
      "name": "balanceOfAt",
      "outputs": [
        {
          "internalType": "uint256",
          "name": "",
          "type": "uint256"
        }
      ],
      "stateMutability": "view",
      "type": "function"
    },
    {
      "inputs": [
        {
          "internalType": "address",
          "name": "account",
          "type": "address"
        },
        {
          "internalType": "uint256",
          "name": "amount",
          "type": "uint256"
        }
      ],
      "name": "burnFrom",
      "outputs": [],
      "stateMutability": "nonpayable",
      "type": "function"
    },
    {
      "inputs": [],
      "name": "cap_",
      "outputs": [
        {
          "internalType": "uint256",
          "name": "",
          "type": "uint256"
        }
      ],
      "stateMutability": "view",
      "type": "function"
    },
    {
      "inputs": [
        {
          "internalType": "address",
          "name": "account",
          "type": "address"
        },
        {
          "internalType": "uint32",
          "name": "pos",
          "type": "uint32"
        }
      ],
      "name": "checkpoints",
      "outputs": [
        {
          "components": [
            {
              "internalType": "uint32",
              "name": "fromBlock",
              "type": "uint32"
            },
            {
              "internalType": "uint224",
              "name": "votes",
              "type": "uint224"
            }
          ],
          "internalType": "struct ERC20VotesUpgradeable.Checkpoint",
          "name": "",
          "type": "tuple"
        }
      ],
      "stateMutability": "view",
      "type": "function"
    },
    {
      "inputs": [],
      "name": "decimals",
      "outputs": [
        {
          "internalType": "uint8",
          "name": "",
          "type": "uint8"
        }
      ],
      "stateMutability": "view",
      "type": "function"
    },
    {
      "inputs": [
        {
          "internalType": "address",
          "name": "spender",
          "type": "address"
        },
        {
          "internalType": "uint256",
          "name": "subtractedValue",
          "type": "uint256"
        }
      ],
      "name": "decreaseAllowance",
      "outputs": [
        {
          "internalType": "bool",
          "name": "",
          "type": "bool"
        }
      ],
      "stateMutability": "nonpayable",
      "type": "function"
    },
    {
      "inputs": [
        {
          "internalType": "address",
          "name": "delegatee",
          "type": "address"
        }
      ],
      "name": "delegate",
      "outputs": [],
      "stateMutability": "nonpayable",
      "type": "function"
    },
    {
      "inputs": [
        {
          "internalType": "address",
          "name": "delegatee",
          "type": "address"
        },
        {
          "internalType": "uint256",
          "name": "nonce",
          "type": "uint256"
        },
        {
          "internalType": "uint256",
          "name": "expiry",
          "type": "uint256"
        },
        {
          "internalType": "uint8",
          "name": "v",
          "type": "uint8"
        },
        {
          "internalType": "bytes32",
          "name": "r",
          "type": "bytes32"
        },
        {
          "internalType": "bytes32",
          "name": "s",
          "type": "bytes32"
        }
      ],
      "name": "delegateBySig",
      "outputs": [],
      "stateMutability": "nonpayable",
      "type": "function"
    },
    {
      "inputs": [
        {
          "internalType": "address",
          "name": "account",
          "type": "address"
        }
      ],
      "name": "delegates",
      "outputs": [
        {
          "internalType": "address",
          "name": "",
          "type": "address"
        }
      ],
      "stateMutability": "view",
      "type": "function"
    },
    {
      "inputs": [
        {
          "internalType": "uint256",
          "name": "blockNumber",
          "type": "uint256"
        }
      ],
      "name": "getPastTotalSupply",
      "outputs": [
        {
          "internalType": "uint256",
          "name": "",
          "type": "uint256"
        }
      ],
      "stateMutability": "view",
      "type": "function"
    },
    {
      "inputs": [
        {
          "internalType": "address",
          "name": "account",
          "type": "address"
        },
        {
          "internalType": "uint256",
          "name": "blockNumber",
          "type": "uint256"
        }
      ],
      "name": "getPastVotes",
      "outputs": [
        {
          "internalType": "uint256",
          "name": "",
          "type": "uint256"
        }
      ],
      "stateMutability": "view",
      "type": "function"
    },
    {
      "inputs": [
        {
          "internalType": "address",
          "name": "account",
          "type": "address"
        }
      ],
      "name": "getVotes",
      "outputs": [
        {
          "internalType": "uint256",
          "name": "",
          "type": "uint256"
        }
      ],
      "stateMutability": "view",
      "type": "function"
    },
    {
      "inputs": [
        {
          "internalType": "address",
          "name": "spender",
          "type": "address"
        },
        {
          "internalType": "uint256",
          "name": "addedValue",
          "type": "uint256"
        }
      ],
      "name": "increaseAllowance",
      "outputs": [
        {
          "internalType": "bool",
          "name": "",
          "type": "bool"
        }
      ],
      "stateMutability": "nonpayable",
      "type": "function"
    },
    {
      "inputs": [],
      "name": "name",
      "outputs": [
        {
          "internalType": "string",
          "name": "",
          "type": "string"
        }
      ],
      "stateMutability": "view",
      "type": "function"
    },
    {
      "inputs": [
        {
          "internalType": "address",
          "name": "owner",
          "type": "address"
        }
      ],
      "name": "nonces",
      "outputs": [
        {
          "internalType": "uint256",
          "name": "",
          "type": "uint256"
        }
      ],
      "stateMutability": "view",
      "type": "function"
    },
    {
      "inputs": [
        {
          "internalType": "address",
          "name": "account",
          "type": "address"
        }
      ],
      "name": "numCheckpoints",
      "outputs": [
        {
          "internalType": "uint32",
          "name": "",
          "type": "uint32"
        }
      ],
      "stateMutability": "view",
      "type": "function"
    },
    {
      "inputs": [],
      "name": "owner",
      "outputs": [
        {
          "internalType": "address",
          "name": "",
          "type": "address"
        }
      ],
      "stateMutability": "view",
      "type": "function"
    },
    {
      "inputs": [],
      "name": "paused",
      "outputs": [
        {
          "internalType": "bool",
          "name": "",
          "type": "bool"
        }
      ],
      "stateMutability": "view",
      "type": "function"
    },
    {
      "inputs": [
        {
          "internalType": "address",
          "name": "owner",
          "type": "address"
        },
        {
          "internalType": "address",
          "name": "spender",
          "type": "address"
        },
        {
          "internalType": "uint256",
          "name": "value",
          "type": "uint256"
        },
        {
          "internalType": "uint256",
          "name": "deadline",
          "type": "uint256"
        },
        {
          "internalType": "uint8",
          "name": "v",
          "type": "uint8"
        },
        {
          "internalType": "bytes32",
          "name": "r",
          "type": "bytes32"
        },
        {
          "internalType": "bytes32",
          "name": "s",
          "type": "bytes32"
        }
      ],
      "name": "permit",
      "outputs": [],
      "stateMutability": "nonpayable",
      "type": "function"
    },
    {
      "inputs": [],
      "name": "renounceOwnership",
      "outputs": [],
      "stateMutability": "nonpayable",
      "type": "function"
    },
    {
      "inputs": [],
      "name": "symbol",
      "outputs": [
        {
          "internalType": "string",
          "name": "",
          "type": "string"
        }
      ],
      "stateMutability": "view",
      "type": "function"
    },
    {
      "inputs": [],
      "name": "totalSupply",
      "outputs": [
        {
          "internalType": "uint256",
          "name": "",
          "type": "uint256"
        }
      ],
      "stateMutability": "view",
      "type": "function"
    },
    {
      "inputs": [
        {
          "internalType": "uint256",
          "name": "snapshotId",
          "type": "uint256"
        }
      ],
      "name": "totalSupplyAt",
      "outputs": [
        {
          "internalType": "uint256",
          "name": "",
          "type": "uint256"
        }
      ],
      "stateMutability": "view",
      "type": "function"
    },
    {
      "inputs": [
        {
          "internalType": "address",
          "name": "recipient",
          "type": "address"
        },
        {
          "internalType": "uint256",
          "name": "amount",
          "type": "uint256"
        }
      ],
      "name": "transfer",
      "outputs": [
        {
          "internalType": "bool",
          "name": "",
          "type": "bool"
        }
      ],
      "stateMutability": "nonpayable",
      "type": "function"
    },
    {
      "inputs": [
        {
          "internalType": "address",
          "name": "sender",
          "type": "address"
        },
        {
          "internalType": "address",
          "name": "recipient",
          "type": "address"
        },
        {
          "internalType": "uint256",
          "name": "amount",
          "type": "uint256"
        }
      ],
      "name": "transferFrom",
      "outputs": [
        {
          "internalType": "bool",
          "name": "",
          "type": "bool"
        }
      ],
      "stateMutability": "nonpayable",
      "type": "function"
    },
    {
      "inputs": [
        {
          "internalType": "address",
          "name": "newOwner",
          "type": "address"
        }
      ],
      "name": "transferOwnership",
      "outputs": [],
      "stateMutability": "nonpayable",
      "type": "function"
    },
    {
      "inputs": [
        {
          "internalType": "address",
          "name": "newImplementation",
          "type": "address"
        }
      ],
      "name": "upgradeTo",
      "outputs": [],
      "stateMutability": "nonpayable",
      "type": "function"
    },
    {
      "inputs": [
        {
          "internalType": "address",
          "name": "newImplementation",
          "type": "address"
        },
        {
          "internalType": "bytes",
          "name": "data",
          "type": "bytes"
        }
      ],
      "name": "upgradeToAndCall",
      "outputs": [],
      "stateMutability": "payable",
      "type": "function"
    },
    {
      "inputs": [],
      "name": "initialize",
      "outputs": [],
      "stateMutability": "nonpayable",
      "type": "function"
    },
    {
      "inputs": [],
      "name": "snapshot",
      "outputs": [],
      "stateMutability": "nonpayable",
      "type": "function"
    },
    {
      "inputs": [],
      "name": "pause",
      "outputs": [],
      "stateMutability": "nonpayable",
      "type": "function"
    },
    {
      "inputs": [],
      "name": "unpause",
      "outputs": [],
      "stateMutability": "nonpayable",
      "type": "function"
    },
    {
      "inputs": [
        {
          "internalType": "address",
          "name": "to",
          "type": "address"
        },
        {
          "internalType": "uint256",
          "name": "amount",
          "type": "uint256"
        }
      ],
      "name": "mint",
      "outputs": [],
      "stateMutability": "nonpayable",
      "type": "function"
    },
    {
      "inputs": [
        {
          "internalType": "uint256",
          "name": "amount",
          "type": "uint256"
        }
      ],
      "name": "burn",
      "outputs": [],
      "stateMutability": "nonpayable",
      "type": "function"
    },
    {
      "inputs": [
        {
          "internalType": "address",
          "name": "account",
          "type": "address"
        },
        {
          "internalType": "uint256",
          "name": "amount",
          "type": "uint256"
        }
      ],
      "name": "burn",
      "outputs": [],
      "stateMutability": "nonpayable",
      "type": "function"
    }
  ],
  "bytecode": "0x608060405234801561001057600080fd5b50613872806100206000396000f3fe60806040526004361061023b5760003560e01c806370a082311161012e578063981b24d0116100ab578063c3cda5201161006f578063c3cda520146106a3578063d505accf146106c3578063dd62ed3e146106e3578063f1127ed814610729578063f2fde38b1461077357600080fd5b8063981b24d0146106035780639ab24eb0146106235780639dc29fac14610643578063a457c2d714610663578063a9059cbb1461068357600080fd5b80638456cb59116100f25780638456cb59146105865780638da5cb5b1461059b5780638e539e8c146105b957806395d89b41146105d95780639711715a146105ee57600080fd5b806370a08231146104e6578063715018a61461051c57806379cc6790146105315780637ecebe00146105515780638129fc1c1461057157600080fd5b80633f4ba83a116101bc578063587cde1e11610180578063587cde1e146104105780635c19a95c146104625780635c975abb146104825780636f1766e91461049a5780636fcfff45146104b157600080fd5b80633f4ba83a1461038857806340c10f191461039d57806342966c68146103bd5780634ee2cd7e146103dd5780634f1ef286146103fd57600080fd5b8063313ce56711610203578063313ce567146102f55780633644e515146103115780633659cfe61461032657806339509351146103485780633a46b1a81461036857600080fd5b806306fdde031461024057806307fb363a1461026b578063095ea7b31461029057806318160ddd146102c057806323b872dd146102d5575b600080fd5b34801561024c57600080fd5b50610255610793565b604051610262919061351e565b60405180910390f35b34801561027757600080fd5b5061028261022b5481565b604051908152602001610262565b34801561029c57600080fd5b506102b06102ab36600461342c565b610825565b6040519015158152602001610262565b3480156102cc57600080fd5b50603554610282565b3480156102e157600080fd5b506102b06102f03660046132cb565b61083c565b34801561030157600080fd5b5060405160128152602001610262565b34801561031d57600080fd5b506102826108ed565b34801561033257600080fd5b5061034661034136600461327f565b6108fc565b005b34801561035457600080fd5b506102b061036336600461342c565b610923565b34801561037457600080fd5b5061028261038336600461342c565b61095f565b34801561039457600080fd5b506103466109d3565b3480156103a957600080fd5b506103466103b836600461342c565b610a07565b3480156103c957600080fd5b506103466103d83660046134ea565b610a3f565b3480156103e957600080fd5b506102826103f836600461342c565b610a49565b61034661040b36600461336f565b610aa2565b34801561041c57600080fd5b5061044a61042b36600461327f565b6001600160a01b03908116600090815261019560205260409020541690565b6040516001600160a01b039091168152602001610262565b34801561046e57600080fd5b5061034661047d36600461327f565b610ab7565b34801561048e57600080fd5b5060fc5460ff166102b0565b3480156104a657600080fd5b5061028261022c5481565b3480156104bd57600080fd5b506104d16104cc36600461327f565b610ac1565b60405163ffffffff9091168152602001610262565b3480156104f257600080fd5b5061028261050136600461327f565b6001600160a01b031660009081526033602052604090205490565b34801561052857600080fd5b50610346610ae4565b34801561053d57600080fd5b5061034661054c36600461342c565b610b18565b34801561055d57600080fd5b5061028261056c36600461327f565b610b9e565b34801561057d57600080fd5b50610346610bbd565b34801561059257600080fd5b50610346610d02565b3480156105a757600080fd5b5060ca546001600160a01b031661044a565b3480156105c557600080fd5b506102826105d43660046134ea565b610d34565b3480156105e557600080fd5b50610255610d91565b3480156105fa57600080fd5b50610346610da0565b34801561060f57600080fd5b5061028261061e3660046134ea565b610dd2565b34801561062f57600080fd5b5061028261063e36600461327f565b610dfd565b34801561064f57600080fd5b5061034661065e36600461342c565b610e94565b34801561066f57600080fd5b506102b061067e36600461342c565b610ec8565b34801561068f57600080fd5b506102b061069e36600461342c565b610f61565b3480156106af57600080fd5b506103466106be366004613455565b61104b565b3480156106cf57600080fd5b506103466106de366004613306565b611181565b3480156106ef57600080fd5b506102826106fe366004613299565b6001600160a01b03918216600090815260346020908152604080832093909416825291909152205490565b34801561073557600080fd5b506107496107443660046134ac565b6112c8565b60408051825163ffffffff1681526020928301516001600160e01b03169281019290925201610262565b34801561077f57600080fd5b5061034661078e36600461327f565b61135b565b6060603680546107a29061378a565b80601f01602080910402602001604051908101604052809291908181526020018280546107ce9061378a565b801561081b5780601f106107f05761010080835404028352916020019161081b565b820191906000526020600020905b8154815290600101906020018083116107fe57829003601f168201915b5050505050905090565b60006108323384846113f3565b5060015b92915050565b6000610849848484611517565b6001600160a01b0384166000908152603460209081526040808320338452909152902054828110156108d35760405162461bcd60e51b815260206004820152602860248201527f45524332303a207472616e7366657220616d6f756e74206578636565647320616044820152676c6c6f77616e636560c01b60648201526084015b60405180910390fd5b6108e085338584036113f3565b60019150505b9392505050565b60006108f761173d565b905090565b610905816117ba565b610920816040518060200160405280600081525060006117e4565b50565b3360008181526034602090815260408083206001600160a01b0387168452909152812054909161083291859061095a908690613616565b6113f3565b60004382106109b05760405162461bcd60e51b815260206004820152601f60248201527f4552433230566f7465733a20626c6f636b206e6f7420796574206d696e65640060448201526064016108ca565b6001600160a01b0383166000908152610196602052604090206108e69083611965565b60ca546001600160a01b031633146109fd5760405162461bcd60e51b81526004016108ca9061359f565b610a05611a3e565b565b60ca546001600160a01b03163314610a315760405162461bcd60e51b81526004016108ca9061359f565b610a3b8282611ad1565b5050565b6109203382611adb565b6001600160a01b038216600090815260986020526040812081908190610a70908590611ae5565b9150915081610a97576001600160a01b038516600090815260336020526040902054610a99565b805b95945050505050565b610aab826117ba565b610a3b828260016117e4565b6109203382611bf0565b6001600160a01b0381166000908152610196602052604081205461083690611c71565b60ca546001600160a01b03163314610b0e5760405162461bcd60e51b81526004016108ca9061359f565b610a056000611cda565b6000610b2483336106fe565b905081811015610b825760405162461bcd60e51b8152602060048201526024808201527f45524332303a206275726e20616d6f756e74206578636565647320616c6c6f77604482015263616e636560e01b60648201526084016108ca565b610b8f83338484036113f3565b610b998383611adb565b505050565b6001600160a01b03811660009081526101626020526040812054610836565b600054610100900460ff1680610bd6575060005460ff16155b610bf25760405162461bcd60e51b81526004016108ca90613551565b600054610100900460ff16158015610c14576000805461ffff19166101011790555b610c206012600a61367d565b610c2f906402540be400613728565b61022b81905550610c816040518060400160405280600a8152602001694b6f6f6f70612e636f6d60b01b815250604051806040016040528060038152602001624b4f4f60e81b81525061022b54611d2c565b610c89611dad565b610c91611dad565b610c99611e28565b610ca1611e8f565b610cc8604051806040016040528060068152602001654b6f6f6f706160d01b815250611ef6565b610cd0611dad565b610cdc6012600a61367d565b610cea906305f5e100613728565b61022c558015610920576000805461ff001916905550565b60ca546001600160a01b03163314610d2c5760405162461bcd60e51b81526004016108ca9061359f565b610a05611f96565b6000438210610d855760405162461bcd60e51b815260206004820152601f60248201527f4552433230566f7465733a20626c6f636b206e6f7420796574206d696e65640060448201526064016108ca565b61083661019783611965565b6060603780546107a29061378a565b60ca546001600160a01b03163314610dca5760405162461bcd60e51b81526004016108ca9061359f565b610920612011565b6000806000610de2846099611ae5565b9150915081610df357603554610df5565b805b949350505050565b6001600160a01b038116600090815261019660205260408120548015610e81576001600160a01b038316600090815261019660205260409020610e41600183613747565b81548110610e5f57634e487b7160e01b600052603260045260246000fd5b60009182526020909120015464010000000090046001600160e01b0316610e84565b60005b6001600160e01b03169392505050565b60ca546001600160a01b03163314610ebe5760405162461bcd60e51b81526004016108ca9061359f565b610a3b8282611adb565b3360009081526034602090815260408083206001600160a01b038616845290915281205482811015610f4a5760405162461bcd60e51b815260206004820152602560248201527f45524332303a2064656372656173656420616c6c6f77616e63652062656c6f77604482015264207a65726f60d81b60648201526084016108ca565b610f5733858584036113f3565b5060019392505050565b6000806064603854610f73919061362e565b9050600083610f97866001600160a01b031660009081526033602052604090205490565b610fa19190613616565b9050818111156110355760405162461bcd60e51b815260206004820152605360248201527f5768616c652053686f636b205361667465793a20412073696e676c652041636360448201527f6f756e742063616e6e6f7420686f6c64206d6f7265207468616e203125206f7260648201527220313030204d696c6c696f6e20546f6b656e7360681b608482015260a4016108ca565b611040338686611517565b506001949350505050565b8342111561109b5760405162461bcd60e51b815260206004820152601d60248201527f4552433230566f7465733a207369676e6174757265206578706972656400000060448201526064016108ca565b604080517fe48329057bfd03d55e49b547132e39cffd9c1820ad7b9d4c5307691425d15adf60208201526001600160a01b0388169181019190915260608101869052608081018590526000906111159061110d9060a0016040516020818303038152906040528051906020012061206b565b8585856120b9565b905061112081612259565b861461116e5760405162461bcd60e51b815260206004820152601960248201527f4552433230566f7465733a20696e76616c6964206e6f6e63650000000000000060448201526064016108ca565b6111788188611bf0565b50505050505050565b834211156111d15760405162461bcd60e51b815260206004820152601d60248201527f45524332305065726d69743a206578706972656420646561646c696e6500000060448201526064016108ca565b6000610163548888886111e38c612259565b6040805160208101969096526001600160a01b0394851690860152929091166060840152608083015260a082015260c0810186905260e001604051602081830303815290604052805190602001209050600061123e8261206b565b9050600061124e828787876120b9565b9050896001600160a01b0316816001600160a01b0316146112b15760405162461bcd60e51b815260206004820152601e60248201527f45524332305065726d69743a20696e76616c6964207369676e6174757265000060448201526064016108ca565b6112bc8a8a8a6113f3565b50505050505050505050565b60408051808201909152600080825260208201526001600160a01b038316600090815261019660205260409020805463ffffffff841690811061131b57634e487b7160e01b600052603260045260246000fd5b60009182526020918290206040805180820190915291015463ffffffff8116825264010000000090046001600160e01b0316918101919091529392505050565b60ca546001600160a01b031633146113855760405162461bcd60e51b81526004016108ca9061359f565b6001600160a01b0381166113ea5760405162461bcd60e51b815260206004820152602660248201527f4f776e61626c653a206e6577206f776e657220697320746865207a65726f206160448201526564647265737360d01b60648201526084016108ca565b61092081611cda565b6001600160a01b0383166114555760405162461bcd60e51b8152602060048201526024808201527f45524332303a20617070726f76652066726f6d20746865207a65726f206164646044820152637265737360e01b60648201526084016108ca565b6001600160a01b0382166114b65760405162461bcd60e51b815260206004820152602260248201527f45524332303a20617070726f766520746f20746865207a65726f206164647265604482015261737360f01b60648201526084016108ca565b6001600160a01b0383811660008181526034602090815260408083209487168084529482529182902085905590518481527f8c5be1e5ebec7d5bd14f71427d1e84f3dd0314c0f7b2291e5b200ac8c7c3b925910160405180910390a3505050565b6001600160a01b03831661157b5760405162461bcd60e51b815260206004820152602560248201527f45524332303a207472616e736665722066726f6d20746865207a65726f206164604482015264647265737360d81b60648201526084016108ca565b6001600160a01b0382166115dd5760405162461bcd60e51b815260206004820152602360248201527f45524332303a207472616e7366657220746f20746865207a65726f206164647260448201526265737360e81b60648201526084016108ca565b6115e8838383612282565b6001600160a01b038316600090815260336020526040902054818110156116605760405162461bcd60e51b815260206004820152602660248201527f45524332303a207472616e7366657220616d6f756e7420657863656564732062604482015265616c616e636560d01b60648201526084016108ca565b6001600160a01b03841660009081526033602052604081208383039055600261168a60648561362e565b611694919061362e565b90506116a08582611adb565b6116aa8184613747565b6001600160a01b0385166000908152603360205260408120805492955085929091906116d7908490613616565b92505081905550836001600160a01b0316856001600160a01b03167fddf252ad1be2c89b69c2b068fc378daa952ba7f163c4a11628f55a4df523b3ef8560405161172391815260200190565b60405180910390a361173685858561234f565b5050505050565b60006108f77f8b73c3c69bb8fe3d512ecc4cf759cc79239f7b179b0ffacaa9a75d522b39400f61176d61012e5490565b61012f546040805160208101859052908101839052606081018290524660808201523060a082015260009060c0016040516020818303038152906040528051906020012090509392505050565b60ca546001600160a01b031633146109205760405162461bcd60e51b81526004016108ca9061359f565b60006118177f360894a13ba1a3210667c828492db98dca3e2076cc3735a920a3ca505d382bbc546001600160a01b031690565b90506118228461235a565b60008351118061182f5750815b156118405761183e84846123ff565b505b7f4910fdfa16fed3260ed0e7147f7cc6da11a60208b5b9406d12a635614ffd9143805460ff1661173657805460ff191660011781556040516001600160a01b03831660248201526118bf90869060440160408051601f198184030181529190526020810180516001600160e01b0316631b2ce7f360e11b1790526123ff565b50805460ff191681557f360894a13ba1a3210667c828492db98dca3e2076cc3735a920a3ca505d382bbc546001600160a01b0383811691161461195c5760405162461bcd60e51b815260206004820152602f60248201527f45524331393637557067726164653a207570677261646520627265616b73206660448201526e75727468657220757067726164657360881b60648201526084016108ca565b611736856124e1565b8154600090815b818110156119d75760006119808284612521565b9050848682815481106119a357634e487b7160e01b600052603260045260246000fd5b60009182526020909120015463ffffffff1611156119c3578092506119d1565b6119ce816001613616565b91505b5061196c565b8115611a2957846119e9600184613747565b81548110611a0757634e487b7160e01b600052603260045260246000fd5b60009182526020909120015464010000000090046001600160e01b0316611a2c565b60005b6001600160e01b031695945050505050565b60fc5460ff16611a875760405162461bcd60e51b815260206004820152601460248201527314185d5cd8589b194e881b9bdd081c185d5cd95960621b60448201526064016108ca565b60fc805460ff191690557f5db9ee0a495bf2e6ff9c91a7834c1ba4fdd244a5e8aa4e537bd38aeae4b073aa335b6040516001600160a01b03909116815260200160405180910390a1565b610a3b8282612578565b610a3b8282612603565b60008060008411611b315760405162461bcd60e51b815260206004820152601660248201527504552433230536e617073686f743a20696420697320360541b60448201526064016108ca565b611b3961261c565b841115611b885760405162461bcd60e51b815260206004820152601d60248201527f4552433230536e617073686f743a206e6f6e6578697374656e7420696400000060448201526064016108ca565b6000611b948486612627565b8454909150811415611bad576000809250925050611be9565b6001846001018281548110611bd257634e487b7160e01b600052603260045260246000fd5b90600052602060002001549250925050611be9565b505b9250929050565b6001600160a01b0382811660008181526101956020818152604080842080546033845282862054949093528787166001600160a01b03198416811790915590519190951694919391928592917f3134e8a2e6d97e929a7e54011ea5485d7d196dd5f0ba4d4ef95803e8e3fc257f9190a4611c6b828483612706565b50505050565b600063ffffffff821115611cd65760405162461bcd60e51b815260206004820152602660248201527f53616665436173743a2076616c756520646f65736e27742066697420696e203360448201526532206269747360d01b60648201526084016108ca565b5090565b60ca80546001600160a01b038381166001600160a01b0319831681179093556040519116919082907f8be0079c531659141344cd1fd0a4f28419497f9722a3daafe3b4186f6b6457e090600090a35050565b600054610100900460ff1680611d45575060005460ff16155b611d615760405162461bcd60e51b81526004016108ca90613551565b600054610100900460ff16158015611d83576000805461ffff19166101011790555b611d8b612845565b611d968484846128af565b8015611c6b576000805461ff001916905550505050565b600054610100900460ff1680611dc6575060005460ff16155b611de25760405162461bcd60e51b81526004016108ca90613551565b600054610100900460ff16158015611e04576000805461ffff19166101011790555b611e0c612845565b611e14612845565b8015610920576000805461ff001916905550565b600054610100900460ff1680611e41575060005460ff16155b611e5d5760405162461bcd60e51b81526004016108ca90613551565b600054610100900460ff16158015611e7f576000805461ffff19166101011790555b611e87612845565b611e1461294a565b600054610100900460ff1680611ea8575060005460ff16155b611ec45760405162461bcd60e51b81526004016108ca90613551565b600054610100900460ff16158015611ee6576000805461ffff19166101011790555b611eee612845565b611e146129aa565b600054610100900460ff1680611f0f575060005460ff16155b611f2b5760405162461bcd60e51b81526004016108ca90613551565b600054610100900460ff16158015611f4d576000805461ffff19166101011790555b611f55612845565b611f7882604051806040016040528060018152602001603160f81b815250612a1f565b611f8182612aab565b8015610a3b576000805461ff00191690555050565b60fc5460ff1615611fdc5760405162461bcd60e51b815260206004820152601060248201526f14185d5cd8589b194e881c185d5cd95960821b60448201526064016108ca565b60fc805460ff191660011790557f62e78cea01bee320cd4e420270b5ea74000d11b0c9f74754ebdbfc544b05a258611ab43390565b6000612021609b80546001019055565b600061202b61261c565b90507f8030e83b04d87bef53480e26263266d6ca66863aa8506aca6f2559d18aa1cb678160405161205e91815260200190565b60405180910390a1919050565b600061083661207861173d565b8360405161190160f01b6020820152602281018390526042810182905260009060620160405160208183030381529060405280519060200120905092915050565b60007f7fffffffffffffffffffffffffffffff5d576e7357a4501ddfe92f46681b20a08211156121365760405162461bcd60e51b815260206004820152602260248201527f45434453413a20696e76616c6964207369676e6174757265202773272076616c604482015261756560f01b60648201526084016108ca565b8360ff16601b148061214b57508360ff16601c145b6121a25760405162461bcd60e51b815260206004820152602260248201527f45434453413a20696e76616c6964207369676e6174757265202776272076616c604482015261756560f01b60648201526084016108ca565b6040805160008082526020820180845288905260ff871692820192909252606081018590526080810184905260019060a0016020604051602081039080840390855afa1580156121f6573d6000803e3d6000fd5b5050604051601f1901519150506001600160a01b038116610a995760405162461bcd60e51b815260206004820152601860248201527f45434453413a20696e76616c6964207369676e6174757265000000000000000060448201526064016108ca565b6001600160a01b0381166000908152610162602052604090208054600181018255905b50919050565b60fc5460ff16156122c85760405162461bcd60e51b815260206004820152601060248201526f14185d5cd8589b194e881c185d5cd95960821b60448201526064016108ca565b6122d3838383612b3c565b6001600160a01b0383161561231157600a61022c546122f2919061362e565b8111156123115760405162461bcd60e51b81526004016108ca906135d4565b6001600160a01b03821615610b9957600a61022c54612330919061362e565b811115610b995760405162461bcd60e51b81526004016108ca906135d4565b610b99838383612b84565b803b6123be5760405162461bcd60e51b815260206004820152602d60248201527f455243313936373a206e657720696d706c656d656e746174696f6e206973206e60448201526c1bdd08184818dbdb9d1c9858dd609a1b60648201526084016108ca565b7f360894a13ba1a3210667c828492db98dca3e2076cc3735a920a3ca505d382bbc80546001600160a01b0319166001600160a01b0392909216919091179055565b6060823b61245e5760405162461bcd60e51b815260206004820152602660248201527f416464726573733a2064656c65676174652063616c6c20746f206e6f6e2d636f6044820152651b9d1c9858dd60d21b60648201526084016108ca565b600080846001600160a01b0316846040516124799190613502565b600060405180830381855af49150503d80600081146124b4576040519150601f19603f3d011682016040523d82523d6000602084013e6124b9565b606091505b5091509150610a99828260405180606001604052806027815260200161381660279139612bb7565b6124ea8161235a565b6040516001600160a01b038216907fbc7cd75a20ee27fd9adebab32041f755214dbc6bffa90cc0225b39da2e5c2d3b90600090a250565b6000600261252f81846137bf565b61253a6002866137bf565b6125449190613616565b61254e919061362e565b61255960028461362e565b61256460028661362e565b61256e9190613616565b6108e69190613616565b6125828282612bf0565b6035546001600160e01b0310156125f45760405162461bcd60e51b815260206004820152603060248201527f4552433230566f7465733a20746f74616c20737570706c79207269736b73206f60448201526f766572666c6f77696e6720766f74657360801b60648201526084016108ca565b611c6b610197612d6183612d6d565b61260d8282612f10565b611c6b61019761307183612d6d565b60006108f7609b5490565b815460009061263857506000610836565b82546000905b808210156126a25760006126528383612521565b90508486828154811061267557634e487b7160e01b600052603260045260246000fd5b9060005260206000200154111561268e5780915061269c565b612699816001613616565b92505b5061263e565b6000821180156126e5575083856126ba600185613747565b815481106126d857634e487b7160e01b600052603260045260246000fd5b9060005260206000200154145b156126fe576126f5600183613747565b92505050610836565b509050610836565b816001600160a01b0316836001600160a01b0316141580156127285750600081115b15610b99576001600160a01b038316156127b7576001600160a01b03831660009081526101966020526040812081906127649061307185612d6d565b91509150846001600160a01b03167fdec2bacdd2f05b59de34da9b523dff8be42e5e38e818c82fdb0bae774387a72483836040516127ac929190918252602082015260400190565b60405180910390a250505b6001600160a01b03821615610b99576001600160a01b03821660009081526101966020526040812081906127ee90612d6185612d6d565b91509150836001600160a01b03167fdec2bacdd2f05b59de34da9b523dff8be42e5e38e818c82fdb0bae774387a7248383604051612836929190918252602082015260400190565b60405180910390a25050505050565b600054610100900460ff168061285e575060005460ff16155b61287a5760405162461bcd60e51b81526004016108ca90613551565b600054610100900460ff16158015611e14576000805461ffff19166101011790558015610920576000805461ff001916905550565b600054610100900460ff16806128c8575060005460ff16155b6128e45760405162461bcd60e51b81526004016108ca90613551565b600054610100900460ff16158015612906576000805461ffff19166101011790555b83516129199060369060208701906131c7565b50825161292d9060379060208601906131c7565b5060388290558015611c6b576000805461ff001916905550505050565b600054610100900460ff1680612963575060005460ff16155b61297f5760405162461bcd60e51b81526004016108ca90613551565b600054610100900460ff161580156129a1576000805461ffff19166101011790555b611e1433611cda565b600054610100900460ff16806129c3575060005460ff16155b6129df5760405162461bcd60e51b81526004016108ca90613551565b600054610100900460ff16158015612a01576000805461ffff19166101011790555b60fc805460ff191690558015610920576000805461ff001916905550565b600054610100900460ff1680612a38575060005460ff16155b612a545760405162461bcd60e51b81526004016108ca90613551565b600054610100900460ff16158015612a76576000805461ffff19166101011790555b825160208085019190912083519184019190912061012e9190915561012f558015610b99576000805461ff0019169055505050565b600054610100900460ff1680612ac4575060005460ff16155b612ae05760405162461bcd60e51b81526004016108ca90613551565b600054610100900460ff16158015612b02576000805461ffff19166101011790555b7f6e71edae12b1b97f4d1f60370fef10105fa2faae0126114a169c64845d6126c9610163558015610a3b576000805461ff00191690555050565b6001600160a01b038316612b5b57612b538261307d565b610b996130b0565b6001600160a01b038216612b7257612b538361307d565b612b7b8361307d565b610b998261307d565b6001600160a01b0383811660009081526101956020526040808220548584168352912054610b9992918216911683612706565b60608315612bc65750816108e6565b825115612bd65782518084602001fd5b8160405162461bcd60e51b81526004016108ca919061351e565b6001600160a01b038216612c465760405162461bcd60e51b815260206004820152601f60248201527f45524332303a206d696e7420746f20746865207a65726f20616464726573730060448201526064016108ca565b600081603554612c569190613616565b9050603854811115612cc45760405162461bcd60e51b815260206004820152603160248201527f4d6178696d756d20537570706c7920526561636865643a2031302042696c6c696044820152706f6e20546f6b656e73204d696e7465642160781b60648201526084016108ca565b612cd060008484612282565b8160356000828254612ce29190613616565b90915550506001600160a01b03831660009081526033602052604081208054849290612d0f908490613616565b90915550506040518281526001600160a01b038416906000907fddf252ad1be2c89b69c2b068fc378daa952ba7f163c4a11628f55a4df523b3ef9060200160405180910390a3610b996000848461234f565b60006108e68284613616565b825460009081908015612dc65785612d86600183613747565b81548110612da457634e487b7160e01b600052603260045260246000fd5b60009182526020909120015464010000000090046001600160e01b0316612dc9565b60005b6001600160e01b03169250612de283858763ffffffff16565b9150600081118015612e2e57504386612dfc600184613747565b81548110612e1a57634e487b7160e01b600052603260045260246000fd5b60009182526020909120015463ffffffff16145b15612e9c57612e3c826130be565b86612e48600184613747565b81548110612e6657634e487b7160e01b600052603260045260246000fd5b9060005260206000200160000160046101000a8154816001600160e01b0302191690836001600160e01b03160217905550612f07565b856040518060400160405280612eb143611c71565b63ffffffff168152602001612ec5856130be565b6001600160e01b0390811690915282546001810184556000938452602093849020835194909301519091166401000000000263ffffffff909316929092179101555b50935093915050565b6001600160a01b038216612f705760405162461bcd60e51b815260206004820152602160248201527f45524332303a206275726e2066726f6d20746865207a65726f206164647265736044820152607360f81b60648201526084016108ca565b612f7c82600083612282565b6001600160a01b03821660009081526033602052604090205481811015612ff05760405162461bcd60e51b815260206004820152602260248201527f45524332303a206275726e20616d6f756e7420657863656564732062616c616e604482015261636560f01b60648201526084016108ca565b6001600160a01b038316600090815260336020526040812083830390556035805484929061301f908490613747565b90915550506040518281526000906001600160a01b038516907fddf252ad1be2c89b69c2b068fc378daa952ba7f163c4a11628f55a4df523b3ef9060200160405180910390a3610b998360008461234f565b60006108e68284613747565b6001600160a01b03811660009081526098602090815260408083206033909252909120546109209190613127565b613127565b610a0560996130ab60355490565b60006001600160e01b03821115611cd65760405162461bcd60e51b815260206004820152602760248201527f53616665436173743a2076616c756520646f65736e27742066697420696e20326044820152663234206269747360c81b60648201526084016108ca565b600061313161261c565b90508061313d84613171565b1015610b99578254600180820185556000858152602080822090930193909355938401805494850181558252902090910155565b805460009061318257506000919050565b8154829061319290600190613747565b815481106131b057634e487b7160e01b600052603260045260246000fd5b90600052602060002001549050919050565b919050565b8280546131d39061378a565b90600052602060002090601f0160209004810192826131f5576000855561323b565b82601f1061320e57805160ff191683800117855561323b565b8280016001018555821561323b579182015b8281111561323b578251825591602001919060010190613220565b50611cd69291505b80821115611cd65760008155600101613243565b80356001600160a01b03811681146131c257600080fd5b803560ff811681146131c257600080fd5b600060208284031215613290578081fd5b6108e682613257565b600080604083850312156132ab578081fd5b6132b483613257565b91506132c260208401613257565b90509250929050565b6000806000606084860312156132df578081fd5b6132e884613257565b92506132f660208501613257565b9150604084013590509250925092565b600080600080600080600060e0888a031215613320578283fd5b61332988613257565b965061333760208901613257565b955060408801359450606088013593506133536080890161326e565b925060a0880135915060c0880135905092959891949750929550565b60008060408385031215613381578182fd5b61338a83613257565b9150602083013567ffffffffffffffff808211156133a6578283fd5b818501915085601f8301126133b9578283fd5b8135818111156133cb576133cb6137ff565b604051601f8201601f19908116603f011681019083821181831017156133f3576133f36137ff565b8160405282815288602084870101111561340b578586fd5b82602086016020830137856020848301015280955050505050509250929050565b6000806040838503121561343e578182fd5b61344783613257565b946020939093013593505050565b60008060008060008060c0878903121561346d578182fd5b61347687613257565b955060208701359450604087013593506134926060880161326e565b92506080870135915060a087013590509295509295509295565b600080604083850312156134be578182fd5b6134c783613257565b9150602083013563ffffffff811681146134df578182fd5b809150509250929050565b6000602082840312156134fb578081fd5b5035919050565b6000825161351481846020870161375e565b9190910192915050565b602081526000825180602084015261353d81604085016020870161375e565b601f01601f19169190910160400192915050565b6020808252602e908201527f496e697469616c697a61626c653a20636f6e747261637420697320616c72656160408201526d191e481a5b9a5d1a585b1a5e995960921b606082015260800190565b6020808252818101527f4f776e61626c653a2063616c6c6572206973206e6f7420746865206f776e6572604082015260600190565b60208082526022908201527f4d61782054786e204c696d6974206f66203130204d696c6c696f6e20546f6b656040820152616e7360f01b606082015260800190565b60008219821115613629576136296137d3565b500190565b60008261363d5761363d6137e9565b500490565b600181815b80851115611be7578160001904821115613663576136636137d3565b8085161561367057918102915b93841c9390800290613647565b60006108e660ff84168360008261369657506001610836565b816136a357506000610836565b81600181146136b957600281146136c3576136df565b6001915050610836565b60ff8411156136d4576136d46137d3565b50506001821b610836565b5060208310610133831016604e8410600b8410161715613702575081810a610836565b61370c8383613642565b8060001904821115613720576137206137d3565b029392505050565b6000816000190483118215151615613742576137426137d3565b500290565b600082821015613759576137596137d3565b500390565b60005b83811015613779578181015183820152602001613761565b83811115611c6b5750506000910152565b600181811c9082168061379e57607f821691505b6020821081141561227c57634e487b7160e01b600052602260045260246000fd5b6000826137ce576137ce6137e9565b500690565b634e487b7160e01b600052601160045260246000fd5b634e487b7160e01b600052601260045260246000fd5b634e487b7160e01b600052604160045260246000fdfe416464726573733a206c6f772d6c6576656c2064656c65676174652063616c6c206661696c6564a26469706673582212208a2a287222d36085708aaa1249a44f44ecc03e70ba56b266adc255649e47ecab64736f6c63430008040033",
  "immutableReferences": {},
  "source": "// SPDX-License-Identifier: MIT\r\npragma solidity ^0.8.2;\r\n\r\nimport \"@openzeppelin/contracts-upgradeable/token/ERC20/ERC20Upgradeable.sol\";\r\nimport \"@openzeppelin/contracts-upgradeable/token/ERC20/extensions/ERC20BurnableUpgradeable.sol\";\r\nimport \"@openzeppelin/contracts-upgradeable/token/ERC20/extensions/ERC20SnapshotUpgradeable.sol\";\r\nimport \"@openzeppelin/contracts-upgradeable/access/OwnableUpgradeable.sol\";\r\nimport \"@openzeppelin/contracts-upgradeable/security/PausableUpgradeable.sol\";\r\nimport \"@openzeppelin/contracts-upgradeable/token/ERC20/extensions/draft-ERC20PermitUpgradeable.sol\";\r\nimport \"@openzeppelin/contracts-upgradeable/token/ERC20/extensions/ERC20VotesUpgradeable.sol\";\r\nimport \"@openzeppelin/contracts-upgradeable/proxy/utils/Initializable.sol\";\r\nimport \"@openzeppelin/contracts-upgradeable/proxy/utils/UUPSUpgradeable.sol\";\r\n\r\n\r\n\r\ncontract Kooopa is Initializable, ERC20Upgradeable, ERC20BurnableUpgradeable, ERC20SnapshotUpgradeable, OwnableUpgradeable, PausableUpgradeable, ERC20PermitUpgradeable, ERC20VotesUpgradeable, UUPSUpgradeable {\r\n    \r\n    uint256 public cap_; // max Supply\r\n    uint256 public _check; // 1% of max supply\r\n    \r\n    function initialize() initializer public {\r\n        cap_ = 10000000000 * 10 ** decimals(); // 10 Billion Tokens ^ 18 decimals \r\n\r\n        __ERC20_init(\"Kooopa.com\", \"KOO\", cap_);\r\n        __ERC20Burnable_init();\r\n        __ERC20Snapshot_init();\r\n        __Ownable_init();\r\n        __Pausable_init();\r\n        __ERC20Permit_init(\"Kooopa\");\r\n        __UUPSUpgradeable_init();\r\n        \r\n        _check = 100000000 * 10 ** decimals();\r\n    }\r\n\r\n    function snapshot() public onlyOwner {\r\n        _snapshot();\r\n    }\r\n\r\n    function pause() public onlyOwner {\r\n        _pause();\r\n    }\r\n\r\n    function unpause() public onlyOwner {\r\n        _unpause();\r\n    }\r\n\r\n    function mint(address to, uint256 amount) public onlyOwner {\r\n        _mint(to, amount);\r\n    }\r\n    \r\n    function burn(address account, uint256 amount) public onlyOwner {\r\n        _burn(account, amount);\r\n    }\r\n\r\n    function _beforeTokenTransfer(address from, address to, uint256 amount)\r\n        internal\r\n        whenNotPaused\r\n        override(ERC20Upgradeable, ERC20SnapshotUpgradeable)\r\n    {\r\n        super._beforeTokenTransfer(from, to, amount);\r\n         if (from != address(0)){\r\n            require(amount <= _check / 10, \"Max Txn Limit of 10 Million Tokens\");\r\n         }\r\n         if (to != address(0)){\r\n            require(amount <= _check / 10, \"Max Txn Limit of 10 Million Tokens\");\r\n         }\r\n    }\r\n\r\n    function _afterTokenTransfer(address from, address to, uint256 amount)\r\n        internal\r\n        override(ERC20Upgradeable, ERC20VotesUpgradeable)\r\n    {\r\n        super._afterTokenTransfer(from, to, amount);\r\n    }\r\n\r\n    function _mint(address to, uint256 amount)\r\n        internal\r\n        override(ERC20Upgradeable, ERC20VotesUpgradeable)\r\n    {\r\n        super._mint(to, amount);\r\n    }\r\n    \r\n\r\n    function _burn(address account, uint256 amount)\r\n        internal\r\n        override(ERC20Upgradeable, ERC20VotesUpgradeable)\r\n    {\r\n        super._burn(account, amount);\r\n    }\r\n\r\n    function _authorizeUpgrade(address newImplementation)\r\n        internal\r\n        onlyOwner\r\n        override\r\n    {\r\n        \r\n    }\r\n    \r\n}\r\n",
  "sourcePath": "E:\\Workspace\\Kooopa\\SmartContracts\\Token\\contracts\\KooopaToken.sol",
  "compiler": {
    "name": "solc",
    "version": "0.8.4+commit.c7e474f2.Emscripten.clang"
  },
  "schemaVersion": "3.4.3",
  "updatedAt": "2021-08-30T12:46:21.417Z",
  "devdoc": {
    "kind": "dev",
    "methods": {
      "DOMAIN_SEPARATOR()": {
        "details": "See {IERC20Permit-DOMAIN_SEPARATOR}."
      },
      "allowance(address,address)": {
        "details": "See {IERC20-allowance}."
      },
      "approve(address,uint256)": {
        "details": "See {IERC20-approve}. Requirements: - `spender` cannot be the zero address."
      },
      "balanceOf(address)": {
        "details": "See {IERC20-balanceOf}."
      },
      "balanceOfAt(address,uint256)": {
        "details": "Retrieves the balance of `account` at the time `snapshotId` was created."
      },
      "burn(uint256)": {
        "details": "Destroys `amount` tokens from the caller. See {ERC20-_burn}."
      },
      "burnFrom(address,uint256)": {
        "details": "Destroys `amount` tokens from `account`, deducting from the caller's allowance. See {ERC20-_burn} and {ERC20-allowance}. Requirements: - the caller must have allowance for ``accounts``'s tokens of at least `amount`."
      },
      "checkpoints(address,uint32)": {
        "details": "Get the `pos`-th checkpoint for `account`."
      },
      "decimals()": {
        "details": "Returns the number of decimals used to get its user representation. For example, if `decimals` equals `2`, a balance of `505` tokens should be displayed to a user as `5,05` (`505 / 10 ** 2`). Tokens usually opt for a value of 18, imitating the relationship between Ether and Wei. This is the value {ERC20} uses, unless this function is overridden; NOTE: This information is only used for _display_ purposes: it in no way affects any of the arithmetic of the contract, including {IERC20-balanceOf} and {IERC20-transfer}."
      },
      "decreaseAllowance(address,uint256)": {
        "details": "Atomically decreases the allowance granted to `spender` by the caller. This is an alternative to {approve} that can be used as a mitigation for problems described in {IERC20-approve}. Emits an {Approval} event indicating the updated allowance. Requirements: - `spender` cannot be the zero address. - `spender` must have allowance for the caller of at least `subtractedValue`."
      },
      "delegate(address)": {
        "details": "Delegate votes from the sender to `delegatee`."
      },
      "delegateBySig(address,uint256,uint256,uint8,bytes32,bytes32)": {
        "details": "Delegates votes from signer to `delegatee`"
      },
      "delegates(address)": {
        "details": "Get the address `account` is currently delegating to."
      },
      "getPastTotalSupply(uint256)": {
        "details": "Retrieve the `totalSupply` at the end of `blockNumber`. Note, this value is the sum of all balances. It is but NOT the sum of all the delegated votes! Requirements: - `blockNumber` must have been already mined"
      },
      "getPastVotes(address,uint256)": {
        "details": "Retrieve the number of votes for `account` at the end of `blockNumber`. Requirements: - `blockNumber` must have been already mined"
      },
      "getVotes(address)": {
        "details": "Gets the current votes balance for `account`"
      },
      "increaseAllowance(address,uint256)": {
        "details": "Atomically increases the allowance granted to `spender` by the caller. This is an alternative to {approve} that can be used as a mitigation for problems described in {IERC20-approve}. Emits an {Approval} event indicating the updated allowance. Requirements: - `spender` cannot be the zero address."
      },
      "name()": {
        "details": "Returns the name of the token."
      },
      "nonces(address)": {
        "details": "See {IERC20Permit-nonces}."
      },
      "numCheckpoints(address)": {
        "details": "Get number of checkpoints for `account`."
      },
      "owner()": {
        "details": "Returns the address of the current owner."
      },
      "paused()": {
        "details": "Returns true if the contract is paused, and false otherwise."
      },
      "permit(address,address,uint256,uint256,uint8,bytes32,bytes32)": {
        "details": "See {IERC20Permit-permit}."
      },
      "renounceOwnership()": {
        "details": "Leaves the contract without owner. It will not be possible to call `onlyOwner` functions anymore. Can only be called by the current owner. NOTE: Renouncing ownership will leave the contract without an owner, thereby removing any functionality that is only available to the owner."
      },
      "symbol()": {
        "details": "Returns the symbol of the token, usually a shorter version of the name."
      },
      "totalSupply()": {
        "details": "See {IERC20-totalSupply}."
      },
      "totalSupplyAt(uint256)": {
        "details": "Retrieves the total supply at the time `snapshotId` was created."
      },
      "transfer(address,uint256)": {
        "details": "See {IERC20-transfer}. Requirements: - `recipient` cannot be the zero address. - the caller must have a balance of at least `amount`."
      },
      "transferFrom(address,address,uint256)": {
        "details": "See {IERC20-transferFrom}. Emits an {Approval} event indicating the updated allowance. This is not required by the EIP. See the note at the beginning of {ERC20}. Requirements: - `sender` and `recipient` cannot be the zero address. - `sender` must have a balance of at least `amount`. - the caller must have allowance for ``sender``'s tokens of at least `amount`."
      },
      "transferOwnership(address)": {
        "details": "Transfers ownership of the contract to a new account (`newOwner`). Can only be called by the current owner."
      },
      "upgradeTo(address)": {
        "details": "Upgrade the implementation of the proxy to `newImplementation`. Calls {_authorizeUpgrade}. Emits an {Upgraded} event."
      },
      "upgradeToAndCall(address,bytes)": {
        "details": "Upgrade the implementation of the proxy to `newImplementation`, and subsequently execute the function call encoded in `data`. Calls {_authorizeUpgrade}. Emits an {Upgraded} event."
      }
    },
    "version": 1
  },
  "userdoc": {
    "kind": "user",
    "methods": {},
    "version": 1
  }
}